{
  "_format": "hh-sol-artifact-1",
  "contractName": "USDC",
  "sourceName": "contracts/USDC.sol",
  "abi": [
    {
      "inputs": [],
      "stateMutability": "nonpayable",
      "type": "constructor"
    },
    {
      "anonymous": false,
      "inputs": [
        {
          "indexed": true,
          "internalType": "address",
          "name": "owner",
          "type": "address"
        },
        {
          "indexed": true,
          "internalType": "address",
          "name": "spender",
          "type": "address"
        },
        {
          "indexed": false,
          "internalType": "uint256",
          "name": "value",
          "type": "uint256"
        }
      ],
      "name": "Approval",
      "type": "event"
    },
    {
      "anonymous": false,
      "inputs": [
        {
          "indexed": true,
          "internalType": "address",
          "name": "from",
          "type": "address"
        },
        {
          "indexed": true,
          "internalType": "address",
          "name": "to",
          "type": "address"
        },
        {
          "indexed": false,
          "internalType": "uint256",
          "name": "value",
          "type": "uint256"
        }
      ],
      "name": "Transfer",
      "type": "event"
    },
    {
      "inputs": [
        {
          "internalType": "address",
          "name": "owner",
          "type": "address"
        },
        {
          "internalType": "address",
          "name": "spender",
          "type": "address"
        }
      ],
      "name": "allowance",
      "outputs": [
        {
          "internalType": "uint256",
          "name": "",
          "type": "uint256"
        }
      ],
      "stateMutability": "view",
      "type": "function"
    },
    {
      "inputs": [
        {
          "internalType": "address",
          "name": "spender",
          "type": "address"
        },
        {
          "internalType": "uint256",
          "name": "amount",
          "type": "uint256"
        }
      ],
      "name": "approve",
      "outputs": [
        {
          "internalType": "bool",
          "name": "",
          "type": "bool"
        }
      ],
      "stateMutability": "nonpayable",
      "type": "function"
    },
    {
      "inputs": [],
      "name": "balance",
      "outputs": [
        {
          "internalType": "uint256",
          "name": "",
          "type": "uint256"
        }
      ],
      "stateMutability": "view",
      "type": "function"
    },
    {
      "inputs": [
        {
          "internalType": "address",
          "name": "account",
          "type": "address"
        }
      ],
      "name": "balanceOf",
      "outputs": [
        {
          "internalType": "uint256",
          "name": "",
          "type": "uint256"
        }
      ],
      "stateMutability": "view",
      "type": "function"
    },
    {
      "inputs": [],
      "name": "decimals",
      "outputs": [
        {
          "internalType": "uint8",
          "name": "",
          "type": "uint8"
        }
      ],
      "stateMutability": "view",
      "type": "function"
    },
    {
      "inputs": [
        {
          "internalType": "address",
          "name": "spender",
          "type": "address"
        },
        {
          "internalType": "uint256",
          "name": "subtractedValue",
          "type": "uint256"
        }
      ],
      "name": "decreaseAllowance",
      "outputs": [
        {
          "internalType": "bool",
          "name": "",
          "type": "bool"
        }
      ],
      "stateMutability": "nonpayable",
      "type": "function"
    },
    {
      "inputs": [
        {
          "internalType": "address",
          "name": "spender",
          "type": "address"
        },
        {
          "internalType": "uint256",
          "name": "addedValue",
          "type": "uint256"
        }
      ],
      "name": "increaseAllowance",
      "outputs": [
        {
          "internalType": "bool",
          "name": "",
          "type": "bool"
        }
      ],
      "stateMutability": "nonpayable",
      "type": "function"
    },
    {
      "inputs": [],
      "name": "name",
      "outputs": [
        {
          "internalType": "string",
          "name": "",
          "type": "string"
        }
      ],
      "stateMutability": "view",
      "type": "function"
    },
    {
      "inputs": [],
      "name": "owner",
      "outputs": [
        {
          "internalType": "address",
          "name": "",
          "type": "address"
        }
      ],
      "stateMutability": "view",
      "type": "function"
    },
    {
      "inputs": [],
      "name": "symbol",
      "outputs": [
        {
          "internalType": "string",
          "name": "",
          "type": "string"
        }
      ],
      "stateMutability": "view",
      "type": "function"
    },
    {
      "inputs": [],
      "name": "totalSupply",
      "outputs": [
        {
          "internalType": "uint256",
          "name": "",
          "type": "uint256"
        }
      ],
      "stateMutability": "view",
      "type": "function"
    },
    {
      "inputs": [
        {
          "internalType": "address",
          "name": "recipient",
          "type": "address"
        },
        {
          "internalType": "uint256",
          "name": "amount",
          "type": "uint256"
        }
      ],
      "name": "transfer",
      "outputs": [
        {
          "internalType": "bool",
          "name": "",
          "type": "bool"
        }
      ],
      "stateMutability": "nonpayable",
      "type": "function"
    },
    {
      "inputs": [
        {
          "internalType": "address",
          "name": "sender",
          "type": "address"
        },
        {
          "internalType": "address",
          "name": "recipient",
          "type": "address"
        },
        {
          "internalType": "uint256",
          "name": "amount",
          "type": "uint256"
        }
      ],
      "name": "transferFrom",
      "outputs": [
        {
          "internalType": "bool",
          "name": "",
          "type": "bool"
        }
      ],
      "stateMutability": "nonpayable",
      "type": "function"
    }
  ],
  "bytecode": "0x60806040523480156200001157600080fd5b506040518060400160405280600781526020017f555344436f696e000000000000000000000000000000000000000000000000008152506040518060400160405280600481526020017f5553444300000000000000000000000000000000000000000000000000000000815250816003908051906020019062000096929190620002c3565b508060049080519060200190620000af929190620002c3565b505050620000f033620000c76200013760201b60201c565b600a620000d59190620004b3565b614e20620000e49190620005f0565b6200014060201b60201c565b33600560006101000a81548173ffffffffffffffffffffffffffffffffffffffff021916908373ffffffffffffffffffffffffffffffffffffffff16021790555062000732565b60006012905090565b600073ffffffffffffffffffffffffffffffffffffffff168273ffffffffffffffffffffffffffffffffffffffff161415620001b3576040517f08c379a0000000000000000000000000000000000000000000000000000000008152600401620001aa90620003ab565b60405180910390fd5b620001c760008383620002b960201b60201c565b8060026000828254620001db9190620003fb565b92505081905550806000808473ffffffffffffffffffffffffffffffffffffffff1673ffffffffffffffffffffffffffffffffffffffff1681526020019081526020016000206000828254620002329190620003fb565b925050819055508173ffffffffffffffffffffffffffffffffffffffff16600073ffffffffffffffffffffffffffffffffffffffff167fddf252ad1be2c89b69c2b068fc378daa952ba7f163c4a11628f55a4df523b3ef83604051620002999190620003cd565b60405180910390a3620002b560008383620002be60201b60201c565b5050565b505050565b505050565b828054620002d19062000668565b90600052602060002090601f016020900481019282620002f5576000855562000341565b82601f106200031057805160ff191683800117855562000341565b8280016001018555821562000341579182015b828111156200034057825182559160200191906001019062000323565b5b50905062000350919062000354565b5090565b5b808211156200036f57600081600090555060010162000355565b5090565b600062000382601f83620003ea565b91506200038f8262000709565b602082019050919050565b620003a58162000651565b82525050565b60006020820190508181036000830152620003c68162000373565b9050919050565b6000602082019050620003e460008301846200039a565b92915050565b600082825260208201905092915050565b6000620004088262000651565b9150620004158362000651565b9250827fffffffffffffffffffffffffffffffffffffffffffffffffffffffffffffffff038211156200044d576200044c6200069e565b5b828201905092915050565b6000808291508390505b6001851115620004aa578086048111156200048257620004816200069e565b5b6001851615620004925780820291505b8081029050620004a285620006fc565b945062000462565b94509492505050565b6000620004c08262000651565b9150620004cd836200065b565b9250620004fc7fffffffffffffffffffffffffffffffffffffffffffffffffffffffffffffffff848462000504565b905092915050565b600082620005165760019050620005e9565b81620005265760009050620005e9565b81600181146200053f57600281146200054a5762000580565b6001915050620005e9565b60ff8411156200055f576200055e6200069e565b5b8360020a9150848211156200057957620005786200069e565b5b50620005e9565b5060208310610133831016604e8410600b8410161715620005ba5782820a905083811115620005b457620005b36200069e565b5b620005e9565b620005c9848484600162000458565b92509050818404811115620005e357620005e26200069e565b5b81810290505b9392505050565b6000620005fd8262000651565b91506200060a8362000651565b9250817fffffffffffffffffffffffffffffffffffffffffffffffffffffffffffffffff04831182151516156200064657620006456200069e565b5b828202905092915050565b6000819050919050565b600060ff82169050919050565b600060028204905060018216806200068157607f821691505b60208210811415620006985762000697620006cd565b5b50919050565b7f4e487b7100000000000000000000000000000000000000000000000000000000600052601160045260246000fd5b7f4e487b7100000000000000000000000000000000000000000000000000000000600052602260045260246000fd5b60008160011c9050919050565b7f45524332303a206d696e7420746f20746865207a65726f206164647265737300600082015250565b61144d80620007426000396000f3fe608060405234801561001057600080fd5b50600436106100cf5760003560e01c806370a082311161008c578063a457c2d711610066578063a457c2d71461022a578063a9059cbb1461025a578063b69ef8a81461028a578063dd62ed3e146102a8576100cf565b806370a08231146101be5780638da5cb5b146101ee57806395d89b411461020c576100cf565b806306fdde03146100d4578063095ea7b3146100f257806318160ddd1461012257806323b872dd14610140578063313ce56714610170578063395093511461018e575b600080fd5b6100dc6102d8565b6040516100e99190610eed565b60405180910390f35b61010c60048036038101906101079190610d11565b61036a565b6040516101199190610ed2565b60405180910390f35b61012a610388565b6040516101379190610fef565b60405180910390f35b61015a60048036038101906101559190610cc2565b610392565b6040516101679190610ed2565b60405180910390f35b61017861048a565b604051610185919061100a565b60405180910390f35b6101a860048036038101906101a39190610d11565b610493565b6040516101b59190610ed2565b60405180910390f35b6101d860048036038101906101d39190610c5d565b61053f565b6040516101e59190610fef565b60405180910390f35b6101f6610587565b6040516102039190610eb7565b60405180910390f35b6102146105ad565b6040516102219190610eed565b60405180910390f35b610244600480360381019061023f9190610d11565b61063f565b6040516102519190610ed2565b60405180910390f35b610274600480360381019061026f9190610d11565b61072a565b6040516102819190610ed2565b60405180910390f35b610292610748565b60405161029f9190610fef565b60405180910390f35b6102c260048036038101906102bd9190610c86565b61074e565b6040516102cf9190610fef565b60405180910390f35b6060600380546102e79061111f565b80601f01602080910402602001604051908101604052809291908181526020018280546103139061111f565b80156103605780601f1061033557610100808354040283529160200191610360565b820191906000526020600020905b81548152906001019060200180831161034357829003601f168201915b5050505050905090565b600061037e6103776107d5565b84846107dd565b6001905092915050565b6000600254905090565b600061039f8484846109a8565b6000600160008673ffffffffffffffffffffffffffffffffffffffff1673ffffffffffffffffffffffffffffffffffffffff16815260200190815260200160002060006103ea6107d5565b73ffffffffffffffffffffffffffffffffffffffff1673ffffffffffffffffffffffffffffffffffffffff1681526020019081526020016000205490508281101561046a576040517f08c379a000000000000000000000000000000000000000000000000000000000815260040161046190610f6f565b60405180910390fd5b61047e856104766107d5565b8584036107dd565b60019150509392505050565b60006012905090565b60006105356104a06107d5565b8484600160006104ae6107d5565b73ffffffffffffffffffffffffffffffffffffffff1673ffffffffffffffffffffffffffffffffffffffff16815260200190815260200160002060008873ffffffffffffffffffffffffffffffffffffffff1673ffffffffffffffffffffffffffffffffffffffff168152602001908152602001600020546105309190611041565b6107dd565b6001905092915050565b60008060008373ffffffffffffffffffffffffffffffffffffffff1673ffffffffffffffffffffffffffffffffffffffff168152602001908152602001600020549050919050565b600560009054906101000a900473ffffffffffffffffffffffffffffffffffffffff1681565b6060600480546105bc9061111f565b80601f01602080910402602001604051908101604052809291908181526020018280546105e89061111f565b80156106355780601f1061060a57610100808354040283529160200191610635565b820191906000526020600020905b81548152906001019060200180831161061857829003601f168201915b5050505050905090565b6000806001600061064e6107d5565b73ffffffffffffffffffffffffffffffffffffffff1673ffffffffffffffffffffffffffffffffffffffff16815260200190815260200160002060008573ffffffffffffffffffffffffffffffffffffffff1673ffffffffffffffffffffffffffffffffffffffff1681526020019081526020016000205490508281101561070b576040517f08c379a000000000000000000000000000000000000000000000000000000000815260040161070290610fcf565b60405180910390fd5b61071f6107166107d5565b858584036107dd565b600191505092915050565b600061073e6107376107d5565b84846109a8565b6001905092915050565b60065481565b6000600160008473ffffffffffffffffffffffffffffffffffffffff1673ffffffffffffffffffffffffffffffffffffffff16815260200190815260200160002060008373ffffffffffffffffffffffffffffffffffffffff1673ffffffffffffffffffffffffffffffffffffffff16815260200190815260200160002054905092915050565b600033905090565b600073ffffffffffffffffffffffffffffffffffffffff168373ffffffffffffffffffffffffffffffffffffffff16141561084d576040517f08c379a000000000000000000000000000000000000000000000000000000000815260040161084490610faf565b60405180910390fd5b600073ffffffffffffffffffffffffffffffffffffffff168273ffffffffffffffffffffffffffffffffffffffff1614156108bd576040517f08c379a00000000000000000000000000000000000000000000000000000000081526004016108b490610f2f565b60405180910390fd5b80600160008573ffffffffffffffffffffffffffffffffffffffff1673ffffffffffffffffffffffffffffffffffffffff16815260200190815260200160002060008473ffffffffffffffffffffffffffffffffffffffff1673ffffffffffffffffffffffffffffffffffffffff168152602001908152602001600020819055508173ffffffffffffffffffffffffffffffffffffffff168373ffffffffffffffffffffffffffffffffffffffff167f8c5be1e5ebec7d5bd14f71427d1e84f3dd0314c0f7b2291e5b200ac8c7c3b9258360405161099b9190610fef565b60405180910390a3505050565b600073ffffffffffffffffffffffffffffffffffffffff168373ffffffffffffffffffffffffffffffffffffffff161415610a18576040517f08c379a0000000000000000000000000000000000000000000000000000000008152600401610a0f90610f8f565b60405180910390fd5b600073ffffffffffffffffffffffffffffffffffffffff168273ffffffffffffffffffffffffffffffffffffffff161415610a88576040517f08c379a0000000000000000000000000000000000000000000000000000000008152600401610a7f90610f0f565b60405180910390fd5b610a93838383610c29565b60008060008573ffffffffffffffffffffffffffffffffffffffff1673ffffffffffffffffffffffffffffffffffffffff16815260200190815260200160002054905081811015610b19576040517f08c379a0000000000000000000000000000000000000000000000000000000008152600401610b1090610f4f565b60405180910390fd5b8181036000808673ffffffffffffffffffffffffffffffffffffffff1673ffffffffffffffffffffffffffffffffffffffff16815260200190815260200160002081905550816000808573ffffffffffffffffffffffffffffffffffffffff1673ffffffffffffffffffffffffffffffffffffffff1681526020019081526020016000206000828254610bac9190611041565b925050819055508273ffffffffffffffffffffffffffffffffffffffff168473ffffffffffffffffffffffffffffffffffffffff167fddf252ad1be2c89b69c2b068fc378daa952ba7f163c4a11628f55a4df523b3ef84604051610c109190610fef565b60405180910390a3610c23848484610c2e565b50505050565b505050565b505050565b600081359050610c42816113e9565b92915050565b600081359050610c5781611400565b92915050565b600060208284031215610c6f57600080fd5b6000610c7d84828501610c33565b91505092915050565b60008060408385031215610c9957600080fd5b6000610ca785828601610c33565b9250506020610cb885828601610c33565b9150509250929050565b600080600060608486031215610cd757600080fd5b6000610ce586828701610c33565b9350506020610cf686828701610c33565b9250506040610d0786828701610c48565b9150509250925092565b60008060408385031215610d2457600080fd5b6000610d3285828601610c33565b9250506020610d4385828601610c48565b9150509250929050565b610d5681611097565b82525050565b610d65816110a9565b82525050565b6000610d7682611025565b610d808185611030565b9350610d908185602086016110ec565b610d99816111af565b840191505092915050565b6000610db1602383611030565b9150610dbc826111c0565b604082019050919050565b6000610dd4602283611030565b9150610ddf8261120f565b604082019050919050565b6000610df7602683611030565b9150610e028261125e565b604082019050919050565b6000610e1a602883611030565b9150610e25826112ad565b604082019050919050565b6000610e3d602583611030565b9150610e48826112fc565b604082019050919050565b6000610e60602483611030565b9150610e6b8261134b565b604082019050919050565b6000610e83602583611030565b9150610e8e8261139a565b604082019050919050565b610ea2816110d5565b82525050565b610eb1816110df565b82525050565b6000602082019050610ecc6000830184610d4d565b92915050565b6000602082019050610ee76000830184610d5c565b92915050565b60006020820190508181036000830152610f078184610d6b565b905092915050565b60006020820190508181036000830152610f2881610da4565b9050919050565b60006020820190508181036000830152610f4881610dc7565b9050919050565b60006020820190508181036000830152610f6881610dea565b9050919050565b60006020820190508181036000830152610f8881610e0d565b9050919050565b60006020820190508181036000830152610fa881610e30565b9050919050565b60006020820190508181036000830152610fc881610e53565b9050919050565b60006020820190508181036000830152610fe881610e76565b9050919050565b60006020820190506110046000830184610e99565b92915050565b600060208201905061101f6000830184610ea8565b92915050565b600081519050919050565b600082825260208201905092915050565b600061104c826110d5565b9150611057836110d5565b9250827fffffffffffffffffffffffffffffffffffffffffffffffffffffffffffffffff0382111561108c5761108b611151565b5b828201905092915050565b60006110a2826110b5565b9050919050565b60008115159050919050565b600073ffffffffffffffffffffffffffffffffffffffff82169050919050565b6000819050919050565b600060ff82169050919050565b60005b8381101561110a5780820151818401526020810190506110ef565b83811115611119576000848401525b50505050565b6000600282049050600182168061113757607f821691505b6020821081141561114b5761114a611180565b5b50919050565b7f4e487b7100000000000000000000000000000000000000000000000000000000600052601160045260246000fd5b7f4e487b7100000000000000000000000000000000000000000000000000000000600052602260045260246000fd5b6000601f19601f8301169050919050565b7f45524332303a207472616e7366657220746f20746865207a65726f206164647260008201527f6573730000000000000000000000000000000000000000000000000000000000602082015250565b7f45524332303a20617070726f766520746f20746865207a65726f20616464726560008201527f7373000000000000000000000000000000000000000000000000000000000000602082015250565b7f45524332303a207472616e7366657220616d6f756e742065786365656473206260008201527f616c616e63650000000000000000000000000000000000000000000000000000602082015250565b7f45524332303a207472616e7366657220616d6f756e742065786365656473206160008201527f6c6c6f77616e6365000000000000000000000000000000000000000000000000602082015250565b7f45524332303a207472616e736665722066726f6d20746865207a65726f20616460008201527f6472657373000000000000000000000000000000000000000000000000000000602082015250565b7f45524332303a20617070726f76652066726f6d20746865207a65726f2061646460008201527f7265737300000000000000000000000000000000000000000000000000000000602082015250565b7f45524332303a2064656372656173656420616c6c6f77616e63652062656c6f7760008201527f207a65726f000000000000000000000000000000000000000000000000000000602082015250565b6113f281611097565b81146113fd57600080fd5b50565b611409816110d5565b811461141457600080fd5b5056fea2646970667358221220dad3c474fdf10c8cc27fe81cfe6972efd756503dcd605ae2f14a4f0f2571f3a364736f6c63430008040033",
  "linkReferences": {},
  "deployedLinkReferences": {}
}