{
  "_format": "hh-sol-artifact-1",
  "contractName": "InflationToken",
  "sourceName": "contracts/InflationToken.sol",
  "abi": [
    {
      "inputs": [],
      "stateMutability": "nonpayable",
      "type": "constructor"
    },
    {
      "anonymous": false,
      "inputs": [
        {
          "indexed": true,
          "internalType": "address",
          "name": "owner",
          "type": "address"
        },
        {
          "indexed": true,
          "internalType": "address",
          "name": "spender",
          "type": "address"
        },
        {
          "indexed": false,
          "internalType": "uint256",
          "name": "value",
          "type": "uint256"
        }
      ],
      "name": "Approval",
      "type": "event"
    },
    {
      "anonymous": false,
      "inputs": [
        {
          "indexed": true,
          "internalType": "address",
          "name": "from",
          "type": "address"
        },
        {
          "indexed": true,
          "internalType": "address",
          "name": "to",
          "type": "address"
        },
        {
          "indexed": false,
          "internalType": "uint256",
          "name": "value",
          "type": "uint256"
        }
      ],
      "name": "Transfer",
      "type": "event"
    },
    {
      "inputs": [],
      "name": "admin",
      "outputs": [
        {
          "internalType": "address",
          "name": "",
          "type": "address"
        }
      ],
      "stateMutability": "view",
      "type": "function"
    },
    {
      "inputs": [
        {
          "internalType": "address",
          "name": "owner",
          "type": "address"
        },
        {
          "internalType": "address",
          "name": "spender",
          "type": "address"
        }
      ],
      "name": "allowance",
      "outputs": [
        {
          "internalType": "uint256",
          "name": "",
          "type": "uint256"
        }
      ],
      "stateMutability": "view",
      "type": "function"
    },
    {
      "inputs": [
        {
          "internalType": "address",
          "name": "spender",
          "type": "address"
        },
        {
          "internalType": "uint256",
          "name": "amount",
          "type": "uint256"
        }
      ],
      "name": "approve",
      "outputs": [
        {
          "internalType": "bool",
          "name": "",
          "type": "bool"
        }
      ],
      "stateMutability": "nonpayable",
      "type": "function"
    },
    {
      "inputs": [
        {
          "internalType": "address",
          "name": "account",
          "type": "address"
        }
      ],
      "name": "balanceOf",
      "outputs": [
        {
          "internalType": "uint256",
          "name": "",
          "type": "uint256"
        }
      ],
      "stateMutability": "view",
      "type": "function"
    },
    {
      "inputs": [
        {
          "internalType": "uint256",
          "name": "amount",
          "type": "uint256"
        }
      ],
      "name": "burn",
      "outputs": [],
      "stateMutability": "nonpayable",
      "type": "function"
    },
    {
      "inputs": [],
      "name": "decimals",
      "outputs": [
        {
          "internalType": "uint8",
          "name": "",
          "type": "uint8"
        }
      ],
      "stateMutability": "view",
      "type": "function"
    },
    {
      "inputs": [
        {
          "internalType": "address",
          "name": "spender",
          "type": "address"
        },
        {
          "internalType": "uint256",
          "name": "subtractedValue",
          "type": "uint256"
        }
      ],
      "name": "decreaseAllowance",
      "outputs": [
        {
          "internalType": "bool",
          "name": "",
          "type": "bool"
        }
      ],
      "stateMutability": "nonpayable",
      "type": "function"
    },
    {
      "inputs": [
        {
          "internalType": "address",
          "name": "spender",
          "type": "address"
        },
        {
          "internalType": "uint256",
          "name": "addedValue",
          "type": "uint256"
        }
      ],
      "name": "increaseAllowance",
      "outputs": [
        {
          "internalType": "bool",
          "name": "",
          "type": "bool"
        }
      ],
      "stateMutability": "nonpayable",
      "type": "function"
    },
    {
      "inputs": [
        {
          "internalType": "address",
          "name": "to",
          "type": "address"
        },
        {
          "internalType": "uint256",
          "name": "amount",
          "type": "uint256"
        }
      ],
      "name": "mint",
      "outputs": [],
      "stateMutability": "nonpayable",
      "type": "function"
    },
    {
      "inputs": [],
      "name": "name",
      "outputs": [
        {
          "internalType": "string",
          "name": "",
          "type": "string"
        }
      ],
      "stateMutability": "view",
      "type": "function"
    },
    {
      "inputs": [],
      "name": "symbol",
      "outputs": [
        {
          "internalType": "string",
          "name": "",
          "type": "string"
        }
      ],
      "stateMutability": "view",
      "type": "function"
    },
    {
      "inputs": [],
      "name": "totalSupply",
      "outputs": [
        {
          "internalType": "uint256",
          "name": "",
          "type": "uint256"
        }
      ],
      "stateMutability": "view",
      "type": "function"
    },
    {
      "inputs": [
        {
          "internalType": "address",
          "name": "recipient",
          "type": "address"
        },
        {
          "internalType": "uint256",
          "name": "amount",
          "type": "uint256"
        }
      ],
      "name": "transfer",
      "outputs": [
        {
          "internalType": "bool",
          "name": "",
          "type": "bool"
        }
      ],
      "stateMutability": "nonpayable",
      "type": "function"
    },
    {
      "inputs": [
        {
          "internalType": "address",
          "name": "sender",
          "type": "address"
        },
        {
          "internalType": "address",
          "name": "recipient",
          "type": "address"
        },
        {
          "internalType": "uint256",
          "name": "amount",
          "type": "uint256"
        }
      ],
      "name": "transferFrom",
      "outputs": [
        {
          "internalType": "bool",
          "name": "",
          "type": "bool"
        }
      ],
      "stateMutability": "nonpayable",
      "type": "function"
    }
  ],
  "bytecode": "0x60806040523480156200001157600080fd5b506040518060400160405280600e81526020017f496e666c6174696f6e546f6b656e0000000000000000000000000000000000008152506040518060400160405280600381526020017f494e460000000000000000000000000000000000000000000000000000000000815250816003908051906020019062000096929190620003c7565b508060049080519060200190620000af929190620003c7565b505050620000f033620000c76200023b60201b60201c565b600a620000d59190620005b7565b614e20620000e49190620006f4565b6200024460201b60201c565b33600560006101000a81548173ffffffffffffffffffffffffffffffffffffffff021916908373ffffffffffffffffffffffffffffffffffffffff160217905550600060076000600560009054906101000a900473ffffffffffffffffffffffffffffffffffffffff1673ffffffffffffffffffffffffffffffffffffffff1673ffffffffffffffffffffffffffffffffffffffff16815260200190815260200160002060006101000a81548173ffffffffffffffffffffffffffffffffffffffff021916908373ffffffffffffffffffffffffffffffffffffffff160217905550600560009054906101000a900473ffffffffffffffffffffffffffffffffffffffff16600660006101000a81548173ffffffffffffffffffffffffffffffffffffffff021916908373ffffffffffffffffffffffffffffffffffffffff16021790555062000836565b60006012905090565b600073ffffffffffffffffffffffffffffffffffffffff168273ffffffffffffffffffffffffffffffffffffffff161415620002b7576040517f08c379a0000000000000000000000000000000000000000000000000000000008152600401620002ae90620004af565b60405180910390fd5b620002cb60008383620003bd60201b60201c565b8060026000828254620002df9190620004ff565b92505081905550806000808473ffffffffffffffffffffffffffffffffffffffff1673ffffffffffffffffffffffffffffffffffffffff1681526020019081526020016000206000828254620003369190620004ff565b925050819055508173ffffffffffffffffffffffffffffffffffffffff16600073ffffffffffffffffffffffffffffffffffffffff167fddf252ad1be2c89b69c2b068fc378daa952ba7f163c4a11628f55a4df523b3ef836040516200039d9190620004d1565b60405180910390a3620003b960008383620003c260201b60201c565b5050565b505050565b505050565b828054620003d5906200076c565b90600052602060002090601f016020900481019282620003f9576000855562000445565b82601f106200041457805160ff191683800117855562000445565b8280016001018555821562000445579182015b828111156200044457825182559160200191906001019062000427565b5b50905062000454919062000458565b5090565b5b808211156200047357600081600090555060010162000459565b5090565b600062000486601f83620004ee565b915062000493826200080d565b602082019050919050565b620004a98162000755565b82525050565b60006020820190508181036000830152620004ca8162000477565b9050919050565b6000602082019050620004e860008301846200049e565b92915050565b600082825260208201905092915050565b60006200050c8262000755565b9150620005198362000755565b9250827fffffffffffffffffffffffffffffffffffffffffffffffffffffffffffffffff03821115620005515762000550620007a2565b5b828201905092915050565b6000808291508390505b6001851115620005ae57808604811115620005865762000585620007a2565b5b6001851615620005965780820291505b8081029050620005a68562000800565b945062000566565b94509492505050565b6000620005c48262000755565b9150620005d1836200075f565b9250620006007fffffffffffffffffffffffffffffffffffffffffffffffffffffffffffffffff848462000608565b905092915050565b6000826200061a5760019050620006ed565b816200062a5760009050620006ed565b81600181146200064357600281146200064e5762000684565b6001915050620006ed565b60ff841115620006635762000662620007a2565b5b8360020a9150848211156200067d576200067c620007a2565b5b50620006ed565b5060208310610133831016604e8410600b8410161715620006be5782820a905083811115620006b857620006b7620007a2565b5b620006ed565b620006cd84848460016200055c565b92509050818404811115620006e757620006e6620007a2565b5b81810290505b9392505050565b6000620007018262000755565b91506200070e8362000755565b9250817fffffffffffffffffffffffffffffffffffffffffffffffffffffffffffffffff04831182151516156200074a5762000749620007a2565b5b828202905092915050565b6000819050919050565b600060ff82169050919050565b600060028204905060018216806200078557607f821691505b602082108114156200079c576200079b620007d1565b5b50919050565b7f4e487b7100000000000000000000000000000000000000000000000000000000600052601160045260246000fd5b7f4e487b7100000000000000000000000000000000000000000000000000000000600052602260045260246000fd5b60008160011c9050919050565b7f45524332303a206d696e7420746f20746865207a65726f206164647265737300600082015250565b611d1380620008466000396000f3fe608060405234801561001057600080fd5b50600436106100ea5760003560e01c806342966c681161008c578063a457c2d711610066578063a457c2d71461025f578063a9059cbb1461028f578063dd62ed3e146102bf578063f851a440146102ef576100ea565b806342966c68146101f557806370a082311461021157806395d89b4114610241576100ea565b806323b872dd116100c857806323b872dd1461015b578063313ce5671461018b57806339509351146101a957806340c10f19146101d9576100ea565b806306fdde03146100ef578063095ea7b31461010d57806318160ddd1461013d575b600080fd5b6100f761030d565b604051610104919061159e565b60405180910390f35b61012760048036038101906101229190611330565b61039f565b6040516101349190611583565b60405180910390f35b6101456103bd565b6040516101529190611700565b60405180910390f35b610175600480360381019061017091906112e1565b6103c7565b6040516101829190611583565b60405180910390f35b6101936104bf565b6040516101a0919061171b565b60405180910390f35b6101c360048036038101906101be9190611330565b6104c8565b6040516101d09190611583565b60405180910390f35b6101f360048036038101906101ee9190611330565b610574565b005b61020f600480360381019061020a919061136c565b610582565b005b61022b6004803603810190610226919061127c565b61058f565b6040516102389190611700565b60405180910390f35b6102496105d7565b604051610256919061159e565b60405180910390f35b61027960048036038101906102749190611330565b610669565b6040516102869190611583565b60405180910390f35b6102a960048036038101906102a49190611330565b610754565b6040516102b69190611583565b60405180910390f35b6102d960048036038101906102d491906112a5565b610772565b6040516102e69190611700565b60405180910390f35b6102f76107f9565b6040516103049190611568565b60405180910390f35b60606003805461031c906118ef565b80601f0160208091040260200160405190810160405280929190818152602001828054610348906118ef565b80156103955780601f1061036a57610100808354040283529160200191610395565b820191906000526020600020905b81548152906001019060200180831161037857829003601f168201915b5050505050905090565b60006103b36103ac61081f565b8484610827565b6001905092915050565b6000600254905090565b60006103d48484846109f2565b6000600160008673ffffffffffffffffffffffffffffffffffffffff1673ffffffffffffffffffffffffffffffffffffffff168152602001908152602001600020600061041f61081f565b73ffffffffffffffffffffffffffffffffffffffff1673ffffffffffffffffffffffffffffffffffffffff1681526020019081526020016000205490508281101561049f576040517f08c379a000000000000000000000000000000000000000000000000000000000815260040161049690611640565b60405180910390fd5b6104b3856104ab61081f565b858403610827565b60019150509392505050565b60006012905090565b600061056a6104d561081f565b8484600160006104e361081f565b73ffffffffffffffffffffffffffffffffffffffff1673ffffffffffffffffffffffffffffffffffffffff16815260200190815260200160002060008873ffffffffffffffffffffffffffffffffffffffff1673ffffffffffffffffffffffffffffffffffffffff168152602001908152602001600020546105659190611752565b610827565b6001905092915050565b61057e8282610a13565b5050565b61058c3382610b73565b50565b60008060008373ffffffffffffffffffffffffffffffffffffffff1673ffffffffffffffffffffffffffffffffffffffff168152602001908152602001600020549050919050565b6060600480546105e6906118ef565b80601f0160208091040260200160405190810160405280929190818152602001828054610612906118ef565b801561065f5780601f106106345761010080835404028352916020019161065f565b820191906000526020600020905b81548152906001019060200180831161064257829003601f168201915b5050505050905090565b6000806001600061067861081f565b73ffffffffffffffffffffffffffffffffffffffff1673ffffffffffffffffffffffffffffffffffffffff16815260200190815260200160002060008573ffffffffffffffffffffffffffffffffffffffff1673ffffffffffffffffffffffffffffffffffffffff16815260200190815260200160002054905082811015610735576040517f08c379a000000000000000000000000000000000000000000000000000000000815260040161072c906116c0565b60405180910390fd5b61074961074061081f565b85858403610827565b600191505092915050565b600061076861076161081f565b84846109f2565b6001905092915050565b6000600160008473ffffffffffffffffffffffffffffffffffffffff1673ffffffffffffffffffffffffffffffffffffffff16815260200190815260200160002060008373ffffffffffffffffffffffffffffffffffffffff1673ffffffffffffffffffffffffffffffffffffffff16815260200190815260200160002054905092915050565b600560009054906101000a900473ffffffffffffffffffffffffffffffffffffffff1681565b600033905090565b600073ffffffffffffffffffffffffffffffffffffffff168373ffffffffffffffffffffffffffffffffffffffff161415610897576040517f08c379a000000000000000000000000000000000000000000000000000000000815260040161088e906116a0565b60405180910390fd5b600073ffffffffffffffffffffffffffffffffffffffff168273ffffffffffffffffffffffffffffffffffffffff161415610907576040517f08c379a00000000000000000000000000000000000000000000000000000000081526004016108fe90611600565b60405180910390fd5b80600160008573ffffffffffffffffffffffffffffffffffffffff1673ffffffffffffffffffffffffffffffffffffffff16815260200190815260200160002060008473ffffffffffffffffffffffffffffffffffffffff1673ffffffffffffffffffffffffffffffffffffffff168152602001908152602001600020819055508173ffffffffffffffffffffffffffffffffffffffff168373ffffffffffffffffffffffffffffffffffffffff167f8c5be1e5ebec7d5bd14f71427d1e84f3dd0314c0f7b2291e5b200ac8c7c3b925836040516109e59190611700565b60405180910390a3505050565b6109fd838383610d4a565b610a0682610fcb565b610a0e61114a565b505050565b600073ffffffffffffffffffffffffffffffffffffffff168273ffffffffffffffffffffffffffffffffffffffff161415610a83576040517f08c379a0000000000000000000000000000000000000000000000000000000008152600401610a7a906116e0565b60405180910390fd5b610a8f60008383611215565b8060026000828254610aa19190611752565b92505081905550806000808473ffffffffffffffffffffffffffffffffffffffff1673ffffffffffffffffffffffffffffffffffffffff1681526020019081526020016000206000828254610af69190611752565b925050819055508173ffffffffffffffffffffffffffffffffffffffff16600073ffffffffffffffffffffffffffffffffffffffff167fddf252ad1be2c89b69c2b068fc378daa952ba7f163c4a11628f55a4df523b3ef83604051610b5b9190611700565b60405180910390a3610b6f6000838361121a565b5050565b600073ffffffffffffffffffffffffffffffffffffffff168273ffffffffffffffffffffffffffffffffffffffff161415610be3576040517f08c379a0000000000000000000000000000000000000000000000000000000008152600401610bda90611660565b60405180910390fd5b610bef82600083611215565b60008060008473ffffffffffffffffffffffffffffffffffffffff1673ffffffffffffffffffffffffffffffffffffffff16815260200190815260200160002054905081811015610c75576040517f08c379a0000000000000000000000000000000000000000000000000000000008152600401610c6c906115e0565b60405180910390fd5b8181036000808573ffffffffffffffffffffffffffffffffffffffff1673ffffffffffffffffffffffffffffffffffffffff168152602001908152602001600020819055508160026000828254610ccc9190611833565b92505081905550600073ffffffffffffffffffffffffffffffffffffffff168373ffffffffffffffffffffffffffffffffffffffff167fddf252ad1be2c89b69c2b068fc378daa952ba7f163c4a11628f55a4df523b3ef84604051610d319190611700565b60405180910390a3610d458360008461121a565b505050565b600073ffffffffffffffffffffffffffffffffffffffff168373ffffffffffffffffffffffffffffffffffffffff161415610dba576040517f08c379a0000000000000000000000000000000000000000000000000000000008152600401610db190611680565b60405180910390fd5b600073ffffffffffffffffffffffffffffffffffffffff168273ffffffffffffffffffffffffffffffffffffffff161415610e2a576040517f08c379a0000000000000000000000000000000000000000000000000000000008152600401610e21906115c0565b60405180910390fd5b610e35838383611215565b60008060008573ffffffffffffffffffffffffffffffffffffffff1673ffffffffffffffffffffffffffffffffffffffff16815260200190815260200160002054905081811015610ebb576040517f08c379a0000000000000000000000000000000000000000000000000000000008152600401610eb290611620565b60405180910390fd5b8181036000808673ffffffffffffffffffffffffffffffffffffffff1673ffffffffffffffffffffffffffffffffffffffff16815260200190815260200160002081905550816000808573ffffffffffffffffffffffffffffffffffffffff1673ffffffffffffffffffffffffffffffffffffffff1681526020019081526020016000206000828254610f4e9190611752565b925050819055508273ffffffffffffffffffffffffffffffffffffffff168473ffffffffffffffffffffffffffffffffffffffff167fddf252ad1be2c89b69c2b068fc378daa952ba7f163c4a11628f55a4df523b3ef84604051610fb29190611700565b60405180910390a3610fc584848461121a565b50505050565b6000600760008373ffffffffffffffffffffffffffffffffffffffff1673ffffffffffffffffffffffffffffffffffffffff16815260200190815260200160002060009054906101000a900473ffffffffffffffffffffffffffffffffffffffff1690508073ffffffffffffffffffffffffffffffffffffffff16600073ffffffffffffffffffffffffffffffffffffffff161415611146578160076000600660009054906101000a900473ffffffffffffffffffffffffffffffffffffffff1673ffffffffffffffffffffffffffffffffffffffff1673ffffffffffffffffffffffffffffffffffffffff16815260200190815260200160002060006101000a81548173ffffffffffffffffffffffffffffffffffffffff021916908373ffffffffffffffffffffffffffffffffffffffff16021790555081600660006101000a81548173ffffffffffffffffffffffffffffffffffffffff021916908373ffffffffffffffffffffffffffffffffffffffff1602179055505b5050565b6000600560009054906101000a900473ffffffffffffffffffffffffffffffffffffffff1690505b61117b8161121f565b600760008273ffffffffffffffffffffffffffffffffffffffff1673ffffffffffffffffffffffffffffffffffffffff16815260200190815260200160002060009054906101000a900473ffffffffffffffffffffffffffffffffffffffff169050600073ffffffffffffffffffffffffffffffffffffffff168173ffffffffffffffffffffffffffffffffffffffff1614156111725750565b505050565b505050565b60006064600161122e8461058f565b61123891906117d9565b61124291906117a8565b905061124e8282610a13565b5050565b60008135905061126181611caf565b92915050565b60008135905061127681611cc6565b92915050565b60006020828403121561128e57600080fd5b600061129c84828501611252565b91505092915050565b600080604083850312156112b857600080fd5b60006112c685828601611252565b92505060206112d785828601611252565b9150509250929050565b6000806000606084860312156112f657600080fd5b600061130486828701611252565b935050602061131586828701611252565b925050604061132686828701611267565b9150509250925092565b6000806040838503121561134357600080fd5b600061135185828601611252565b925050602061136285828601611267565b9150509250929050565b60006020828403121561137e57600080fd5b600061138c84828501611267565b91505092915050565b61139e81611867565b82525050565b6113ad81611879565b82525050565b60006113be82611736565b6113c88185611741565b93506113d88185602086016118bc565b6113e1816119ae565b840191505092915050565b60006113f9602383611741565b9150611404826119bf565b604082019050919050565b600061141c602283611741565b915061142782611a0e565b604082019050919050565b600061143f602283611741565b915061144a82611a5d565b604082019050919050565b6000611462602683611741565b915061146d82611aac565b604082019050919050565b6000611485602883611741565b915061149082611afb565b604082019050919050565b60006114a8602183611741565b91506114b382611b4a565b604082019050919050565b60006114cb602583611741565b91506114d682611b99565b604082019050919050565b60006114ee602483611741565b91506114f982611be8565b604082019050919050565b6000611511602583611741565b915061151c82611c37565b604082019050919050565b6000611534601f83611741565b915061153f82611c86565b602082019050919050565b611553816118a5565b82525050565b611562816118af565b82525050565b600060208201905061157d6000830184611395565b92915050565b600060208201905061159860008301846113a4565b92915050565b600060208201905081810360008301526115b881846113b3565b905092915050565b600060208201905081810360008301526115d9816113ec565b9050919050565b600060208201905081810360008301526115f98161140f565b9050919050565b6000602082019050818103600083015261161981611432565b9050919050565b6000602082019050818103600083015261163981611455565b9050919050565b6000602082019050818103600083015261165981611478565b9050919050565b600060208201905081810360008301526116798161149b565b9050919050565b60006020820190508181036000830152611699816114be565b9050919050565b600060208201905081810360008301526116b9816114e1565b9050919050565b600060208201905081810360008301526116d981611504565b9050919050565b600060208201905081810360008301526116f981611527565b9050919050565b6000602082019050611715600083018461154a565b92915050565b60006020820190506117306000830184611559565b92915050565b600081519050919050565b600082825260208201905092915050565b600061175d826118a5565b9150611768836118a5565b9250827fffffffffffffffffffffffffffffffffffffffffffffffffffffffffffffffff0382111561179d5761179c611921565b5b828201905092915050565b60006117b3826118a5565b91506117be836118a5565b9250826117ce576117cd611950565b5b828204905092915050565b60006117e4826118a5565b91506117ef836118a5565b9250817fffffffffffffffffffffffffffffffffffffffffffffffffffffffffffffffff048311821515161561182857611827611921565b5b828202905092915050565b600061183e826118a5565b9150611849836118a5565b92508282101561185c5761185b611921565b5b828203905092915050565b600061187282611885565b9050919050565b60008115159050919050565b600073ffffffffffffffffffffffffffffffffffffffff82169050919050565b6000819050919050565b600060ff82169050919050565b60005b838110156118da5780820151818401526020810190506118bf565b838111156118e9576000848401525b50505050565b6000600282049050600182168061190757607f821691505b6020821081141561191b5761191a61197f565b5b50919050565b7f4e487b7100000000000000000000000000000000000000000000000000000000600052601160045260246000fd5b7f4e487b7100000000000000000000000000000000000000000000000000000000600052601260045260246000fd5b7f4e487b7100000000000000000000000000000000000000000000000000000000600052602260045260246000fd5b6000601f19601f8301169050919050565b7f45524332303a207472616e7366657220746f20746865207a65726f206164647260008201527f6573730000000000000000000000000000000000000000000000000000000000602082015250565b7f45524332303a206275726e20616d6f756e7420657863656564732062616c616e60008201527f6365000000000000000000000000000000000000000000000000000000000000602082015250565b7f45524332303a20617070726f766520746f20746865207a65726f20616464726560008201527f7373000000000000000000000000000000000000000000000000000000000000602082015250565b7f45524332303a207472616e7366657220616d6f756e742065786365656473206260008201527f616c616e63650000000000000000000000000000000000000000000000000000602082015250565b7f45524332303a207472616e7366657220616d6f756e742065786365656473206160008201527f6c6c6f77616e6365000000000000000000000000000000000000000000000000602082015250565b7f45524332303a206275726e2066726f6d20746865207a65726f2061646472657360008201527f7300000000000000000000000000000000000000000000000000000000000000602082015250565b7f45524332303a207472616e736665722066726f6d20746865207a65726f20616460008201527f6472657373000000000000000000000000000000000000000000000000000000602082015250565b7f45524332303a20617070726f76652066726f6d20746865207a65726f2061646460008201527f7265737300000000000000000000000000000000000000000000000000000000602082015250565b7f45524332303a2064656372656173656420616c6c6f77616e63652062656c6f7760008201527f207a65726f000000000000000000000000000000000000000000000000000000602082015250565b7f45524332303a206d696e7420746f20746865207a65726f206164647265737300600082015250565b611cb881611867565b8114611cc357600080fd5b50565b611ccf816118a5565b8114611cda57600080fd5b5056fea2646970667358221220db24e0754b62dd6cbdd84a4e2e696ddafde099fffbbb62264916a3be6bb75a8964736f6c63430008040033",
  "linkReferences": {},
  "deployedLinkReferences": {}
}