{
  "_format": "hh-sol-artifact-1",
  "contractName": "SimpleContract",
  "sourceName": "contracts/SimpleContract.sol",
  "abi": [
    {
      "inputs": [
        {
          "internalType": "string",
          "name": "_value",
          "type": "string"
        }
      ],
      "stateMutability": "nonpayable",
      "type": "constructor"
    },
    {
      "anonymous": false,
      "inputs": [
        {
          "indexed": true,
          "internalType": "uint256",
          "name": "id",
          "type": "uint256"
        },
        {
          "indexed": true,
          "internalType": "uint256",
          "name": "date",
          "type": "uint256"
        },
        {
          "indexed": false,
          "internalType": "string",
          "name": "value",
          "type": "string"
        }
      ],
      "name": "MyEvent",
      "type": "event"
    },
    {
      "inputs": [],
      "name": "emitEvent",
      "outputs": [],
      "stateMutability": "nonpayable",
      "type": "function"
    }
  ],
  "bytecode": "0x60806040523480156200001157600080fd5b50604051620008f1380380620008f1833981810160405281019062000037919062000278565b62000067604051806060016040528060288152602001620008c960289139826200008760201b6200008f1760201c565b80600190805190602001906200007f92919062000156565b5050620004c5565b620001298282604051602401620000a0929190620002fe565b6040516020818303038152906040527f4b5c4277000000000000000000000000000000000000000000000000000000007bffffffffffffffffffffffffffffffffffffffffffffffffffffffff19166020820180517bffffffffffffffffffffffffffffffffffffffffffffffffffffffff83818316178352505050506200012d60201b60201c565b5050565b60008151905060006a636f6e736f6c652e6c6f679050602083016000808483855afa5050505050565b8280546200016490620003ea565b90600052602060002090601f016020900481019282620001885760008555620001d4565b82601f10620001a357805160ff1916838001178555620001d4565b82800160010185558215620001d4579182015b82811115620001d3578251825591602001919060010190620001b6565b5b509050620001e39190620001e7565b5090565b5b8082111562000202576000816000905550600101620001e8565b5090565b60006200021d620002178462000362565b62000339565b9050828152602081018484840111156200023657600080fd5b62000243848285620003b4565b509392505050565b600082601f8301126200025d57600080fd5b81516200026f84826020860162000206565b91505092915050565b6000602082840312156200028b57600080fd5b600082015167ffffffffffffffff811115620002a657600080fd5b620002b4848285016200024b565b91505092915050565b6000620002ca8262000398565b620002d68185620003a3565b9350620002e8818560208601620003b4565b620002f381620004b4565b840191505092915050565b600060408201905081810360008301526200031a8185620002bd565b90508181036020830152620003308184620002bd565b90509392505050565b60006200034562000358565b905062000353828262000420565b919050565b6000604051905090565b600067ffffffffffffffff82111562000380576200037f62000485565b5b6200038b82620004b4565b9050602081019050919050565b600081519050919050565b600082825260208201905092915050565b60005b83811015620003d4578082015181840152602081019050620003b7565b83811115620003e4576000848401525b50505050565b600060028204905060018216806200040357607f821691505b602082108114156200041a576200041962000456565b5b50919050565b6200042b82620004b4565b810181811067ffffffffffffffff821117156200044d576200044c62000485565b5b80604052505050565b7f4e487b7100000000000000000000000000000000000000000000000000000000600052602260045260246000fd5b7f4e487b7100000000000000000000000000000000000000000000000000000000600052604160045260246000fd5b6000601f19601f8301169050919050565b6103f480620004d56000396000f3fe608060405234801561001057600080fd5b506004361061002b5760003560e01c80637b0cb83914610030575b600080fd5b61003861003a565b005b426000547fb471d59b9e8fe78ab0670c11fe84df6ab431139b43533ab6764e0b15b8d6c39a600160405161006e9190610244565b60405180910390a360008081548092919061008890610306565b9190505550565b61012782826040516024016100a592919061020d565b6040516020818303038152906040527f4b5c4277000000000000000000000000000000000000000000000000000000007bffffffffffffffffffffffffffffffffffffffffffffffffffffffff19166020820180517bffffffffffffffffffffffffffffffffffffffffffffffffffffffff838183161783525050505061012b565b5050565b60008151905060006a636f6e736f6c652e6c6f679050602083016000808483855afa5050505050565b600061015f8261027b565b6101698185610286565b93506101798185602086016102a1565b610182816103ad565b840191505092915050565b6000815461019a816102d4565b6101a48186610286565b945060018216600081146101bf57600181146101d157610204565b60ff1983168652602086019350610204565b6101da85610266565b60005b838110156101fc578154818901526001820191506020810190506101dd565b808801955050505b50505092915050565b600060408201905081810360008301526102278185610154565b9050818103602083015261023b8184610154565b90509392505050565b6000602082019050818103600083015261025e818461018d565b905092915050565b60008190508160005260206000209050919050565b600081519050919050565b600082825260208201905092915050565b6000819050919050565b60005b838110156102bf5780820151818401526020810190506102a4565b838111156102ce576000848401525b50505050565b600060028204905060018216806102ec57607f821691505b60208210811415610300576102ff61037e565b5b50919050565b600061031182610297565b91507fffffffffffffffffffffffffffffffffffffffffffffffffffffffffffffffff8214156103445761034361034f565b5b600182019050919050565b7f4e487b7100000000000000000000000000000000000000000000000000000000600052601160045260246000fd5b7f4e487b7100000000000000000000000000000000000000000000000000000000600052602260045260246000fd5b6000601f19601f830116905091905056fea2646970667358221220cc0c6ef407460413e21c472247f2a3a90e9af121cbad3bee2b61bc17df992ec164736f6c634300080400334465706c6f79696e6720612053696d706c6520436f6e747261637420776974682076616c7565203a",
  "linkReferences": {},
  "deployedLinkReferences": {}
}