{
  "_format": "hh-sol-artifact-1",
  "contractName": "MyTestContract",
  "sourceName": "contracts/MyTestToken.sol",
  "abi": [
    {
      "inputs": [],
      "stateMutability": "nonpayable",
      "type": "constructor"
    },
    {
      "anonymous": false,
      "inputs": [
        {
          "indexed": true,
          "internalType": "address",
          "name": "owner",
          "type": "address"
        },
        {
          "indexed": true,
          "internalType": "address",
          "name": "spender",
          "type": "address"
        },
        {
          "indexed": false,
          "internalType": "uint256",
          "name": "value",
          "type": "uint256"
        }
      ],
      "name": "Approval",
      "type": "event"
    },
    {
      "anonymous": false,
      "inputs": [
        {
          "indexed": true,
          "internalType": "address",
          "name": "from",
          "type": "address"
        },
        {
          "indexed": true,
          "internalType": "address",
          "name": "to",
          "type": "address"
        },
        {
          "indexed": false,
          "internalType": "uint256",
          "name": "value",
          "type": "uint256"
        }
      ],
      "name": "Transfer",
      "type": "event"
    },
    {
      "anonymous": false,
      "inputs": [
        {
          "indexed": false,
          "internalType": "address",
          "name": "_from",
          "type": "address"
        },
        {
          "indexed": false,
          "internalType": "address",
          "name": "_destAddr",
          "type": "address"
        },
        {
          "indexed": false,
          "internalType": "uint256",
          "name": "_amount",
          "type": "uint256"
        }
      ],
      "name": "TransferSent",
      "type": "event"
    },
    {
      "inputs": [],
      "name": "admin",
      "outputs": [
        {
          "internalType": "address",
          "name": "",
          "type": "address"
        }
      ],
      "stateMutability": "view",
      "type": "function"
    },
    {
      "inputs": [
        {
          "internalType": "address",
          "name": "owner",
          "type": "address"
        },
        {
          "internalType": "address",
          "name": "spender",
          "type": "address"
        }
      ],
      "name": "allowance",
      "outputs": [
        {
          "internalType": "uint256",
          "name": "",
          "type": "uint256"
        }
      ],
      "stateMutability": "view",
      "type": "function"
    },
    {
      "inputs": [
        {
          "internalType": "address",
          "name": "spender",
          "type": "address"
        },
        {
          "internalType": "uint256",
          "name": "amount",
          "type": "uint256"
        }
      ],
      "name": "approve",
      "outputs": [
        {
          "internalType": "bool",
          "name": "",
          "type": "bool"
        }
      ],
      "stateMutability": "nonpayable",
      "type": "function"
    },
    {
      "inputs": [
        {
          "internalType": "address",
          "name": "account",
          "type": "address"
        }
      ],
      "name": "balanceOf",
      "outputs": [
        {
          "internalType": "uint256",
          "name": "",
          "type": "uint256"
        }
      ],
      "stateMutability": "view",
      "type": "function"
    },
    {
      "inputs": [
        {
          "internalType": "uint256",
          "name": "amount",
          "type": "uint256"
        }
      ],
      "name": "burn",
      "outputs": [],
      "stateMutability": "nonpayable",
      "type": "function"
    },
    {
      "inputs": [],
      "name": "decimals",
      "outputs": [
        {
          "internalType": "uint8",
          "name": "",
          "type": "uint8"
        }
      ],
      "stateMutability": "view",
      "type": "function"
    },
    {
      "inputs": [
        {
          "internalType": "address",
          "name": "spender",
          "type": "address"
        },
        {
          "internalType": "uint256",
          "name": "subtractedValue",
          "type": "uint256"
        }
      ],
      "name": "decreaseAllowance",
      "outputs": [
        {
          "internalType": "bool",
          "name": "",
          "type": "bool"
        }
      ],
      "stateMutability": "nonpayable",
      "type": "function"
    },
    {
      "inputs": [
        {
          "internalType": "address",
          "name": "spender",
          "type": "address"
        },
        {
          "internalType": "uint256",
          "name": "addedValue",
          "type": "uint256"
        }
      ],
      "name": "increaseAllowance",
      "outputs": [
        {
          "internalType": "bool",
          "name": "",
          "type": "bool"
        }
      ],
      "stateMutability": "nonpayable",
      "type": "function"
    },
    {
      "inputs": [
        {
          "internalType": "address",
          "name": "to",
          "type": "address"
        },
        {
          "internalType": "uint256",
          "name": "amount",
          "type": "uint256"
        }
      ],
      "name": "mint",
      "outputs": [],
      "stateMutability": "nonpayable",
      "type": "function"
    },
    {
      "inputs": [],
      "name": "name",
      "outputs": [
        {
          "internalType": "string",
          "name": "",
          "type": "string"
        }
      ],
      "stateMutability": "view",
      "type": "function"
    },
    {
      "inputs": [],
      "name": "symbol",
      "outputs": [
        {
          "internalType": "string",
          "name": "",
          "type": "string"
        }
      ],
      "stateMutability": "view",
      "type": "function"
    },
    {
      "inputs": [],
      "name": "totalSupply",
      "outputs": [
        {
          "internalType": "uint256",
          "name": "",
          "type": "uint256"
        }
      ],
      "stateMutability": "view",
      "type": "function"
    },
    {
      "inputs": [
        {
          "internalType": "address",
          "name": "recipient",
          "type": "address"
        },
        {
          "internalType": "uint256",
          "name": "amount",
          "type": "uint256"
        }
      ],
      "name": "transfer",
      "outputs": [
        {
          "internalType": "bool",
          "name": "",
          "type": "bool"
        }
      ],
      "stateMutability": "nonpayable",
      "type": "function"
    },
    {
      "inputs": [
        {
          "internalType": "address",
          "name": "sender",
          "type": "address"
        },
        {
          "internalType": "address",
          "name": "recipient",
          "type": "address"
        },
        {
          "internalType": "uint256",
          "name": "amount",
          "type": "uint256"
        }
      ],
      "name": "transferFrom",
      "outputs": [
        {
          "internalType": "bool",
          "name": "",
          "type": "bool"
        }
      ],
      "stateMutability": "nonpayable",
      "type": "function"
    }
  ],
  "bytecode": "0x60806040523480156200001157600080fd5b506040518060400160405280600581526020017f54657374790000000000000000000000000000000000000000000000000000008152506040518060400160405280600381526020017f545459000000000000000000000000000000000000000000000000000000000081525081600390805190602001906200009692919062000326565b508060049080519060200190620000af92919062000326565b505050620000f033620000c76200019a60201b60201c565b600a620000d5919062000516565b614e20620000e4919062000653565b620001a360201b60201c565b33600560006101000a81548173ffffffffffffffffffffffffffffffffffffffff021916908373ffffffffffffffffffffffffffffffffffffffff1602179055506006339080600181540180825580915050600190039060005260206000200160009091909190916101000a81548173ffffffffffffffffffffffffffffffffffffffff021916908373ffffffffffffffffffffffffffffffffffffffff16021790555062000795565b60006012905090565b600073ffffffffffffffffffffffffffffffffffffffff168273ffffffffffffffffffffffffffffffffffffffff16141562000216576040517f08c379a00000000000000000000000000000000000000000000000000000000081526004016200020d906200040e565b60405180910390fd5b6200022a600083836200031c60201b60201c565b80600260008282546200023e91906200045e565b92505081905550806000808473ffffffffffffffffffffffffffffffffffffffff1673ffffffffffffffffffffffffffffffffffffffff16815260200190815260200160002060008282546200029591906200045e565b925050819055508173ffffffffffffffffffffffffffffffffffffffff16600073ffffffffffffffffffffffffffffffffffffffff167fddf252ad1be2c89b69c2b068fc378daa952ba7f163c4a11628f55a4df523b3ef83604051620002fc919062000430565b60405180910390a362000318600083836200032160201b60201c565b5050565b505050565b505050565b8280546200033490620006cb565b90600052602060002090601f016020900481019282620003585760008555620003a4565b82601f106200037357805160ff1916838001178555620003a4565b82800160010185558215620003a4579182015b82811115620003a357825182559160200191906001019062000386565b5b509050620003b39190620003b7565b5090565b5b80821115620003d2576000816000905550600101620003b8565b5090565b6000620003e5601f836200044d565b9150620003f2826200076c565b602082019050919050565b6200040881620006b4565b82525050565b600060208201905081810360008301526200042981620003d6565b9050919050565b6000602082019050620004476000830184620003fd565b92915050565b600082825260208201905092915050565b60006200046b82620006b4565b91506200047883620006b4565b9250827fffffffffffffffffffffffffffffffffffffffffffffffffffffffffffffffff03821115620004b057620004af62000701565b5b828201905092915050565b6000808291508390505b60018511156200050d57808604811115620004e557620004e462000701565b5b6001851615620004f55780820291505b808102905062000505856200075f565b9450620004c5565b94509492505050565b60006200052382620006b4565b91506200053083620006be565b92506200055f7fffffffffffffffffffffffffffffffffffffffffffffffffffffffffffffffff848462000567565b905092915050565b6000826200057957600190506200064c565b816200058957600090506200064c565b8160018114620005a25760028114620005ad57620005e3565b60019150506200064c565b60ff841115620005c257620005c162000701565b5b8360020a915084821115620005dc57620005db62000701565b5b506200064c565b5060208310610133831016604e8410600b84101617156200061d5782820a90508381111562000617576200061662000701565b5b6200064c565b6200062c8484846001620004bb565b9250905081840481111562000646576200064562000701565b5b81810290505b9392505050565b60006200066082620006b4565b91506200066d83620006b4565b9250817fffffffffffffffffffffffffffffffffffffffffffffffffffffffffffffffff0483118215151615620006a957620006a862000701565b5b828202905092915050565b6000819050919050565b600060ff82169050919050565b60006002820490506001821680620006e457607f821691505b60208210811415620006fb57620006fa62000730565b5b50919050565b7f4e487b7100000000000000000000000000000000000000000000000000000000600052601160045260246000fd5b7f4e487b7100000000000000000000000000000000000000000000000000000000600052602260045260246000fd5b60008160011c9050919050565b7f45524332303a206d696e7420746f20746865207a65726f206164647265737300600082015250565b611d4c80620007a56000396000f3fe608060405234801561001057600080fd5b50600436106100ea5760003560e01c806342966c681161008c578063a457c2d711610066578063a457c2d71461025f578063a9059cbb1461028f578063dd62ed3e146102bf578063f851a440146102ef576100ea565b806342966c68146101f557806370a082311461021157806395d89b4114610241576100ea565b806323b872dd116100c857806323b872dd1461015b578063313ce5671461018b57806339509351146101a957806340c10f19146101d9576100ea565b806306fdde03146100ef578063095ea7b31461010d57806318160ddd1461013d575b600080fd5b6100f761030d565b604051610104919061158e565b60405180910390f35b610127600480360381019061012291906112e9565b61039f565b6040516101349190611573565b60405180910390f35b6101456103bd565b60405161015291906116f0565b60405180910390f35b6101756004803603810190610170919061129a565b6103c7565b6040516101829190611573565b60405180910390f35b6101936104bf565b6040516101a0919061170b565b60405180910390f35b6101c360048036038101906101be91906112e9565b6104c8565b6040516101d09190611573565b60405180910390f35b6101f360048036038101906101ee91906112e9565b610574565b005b61020f600480360381019061020a9190611325565b610582565b005b61022b60048036038101906102269190611235565b61058f565b60405161023891906116f0565b60405180910390f35b6102496105d7565b604051610256919061158e565b60405180910390f35b610279600480360381019061027491906112e9565b610669565b6040516102869190611573565b60405180910390f35b6102a960048036038101906102a491906112e9565b610754565b6040516102b69190611573565b60405180910390f35b6102d960048036038101906102d4919061125e565b610772565b6040516102e691906116f0565b60405180910390f35b6102f76107f9565b6040516103049190611521565b60405180910390f35b60606003805461031c906118df565b80601f0160208091040260200160405190810160405280929190818152602001828054610348906118df565b80156103955780601f1061036a57610100808354040283529160200191610395565b820191906000526020600020905b81548152906001019060200180831161037857829003601f168201915b5050505050905090565b60006103b36103ac61081f565b8484610827565b6001905092915050565b6000600254905090565b60006103d48484846109f2565b6000600160008673ffffffffffffffffffffffffffffffffffffffff1673ffffffffffffffffffffffffffffffffffffffff168152602001908152602001600020600061041f61081f565b73ffffffffffffffffffffffffffffffffffffffff1673ffffffffffffffffffffffffffffffffffffffff1681526020019081526020016000205490508281101561049f576040517f08c379a000000000000000000000000000000000000000000000000000000000815260040161049690611630565b60405180910390fd5b6104b3856104ab61081f565b858403610827565b60019150509392505050565b60006012905090565b600061056a6104d561081f565b8484600160006104e361081f565b73ffffffffffffffffffffffffffffffffffffffff1673ffffffffffffffffffffffffffffffffffffffff16815260200190815260200160002060008873ffffffffffffffffffffffffffffffffffffffff1673ffffffffffffffffffffffffffffffffffffffff168152602001908152602001600020546105659190611742565b610827565b6001905092915050565b61057e8282610a4e565b5050565b61058c3382610bae565b50565b60008060008373ffffffffffffffffffffffffffffffffffffffff1673ffffffffffffffffffffffffffffffffffffffff168152602001908152602001600020549050919050565b6060600480546105e6906118df565b80601f0160208091040260200160405190810160405280929190818152602001828054610612906118df565b801561065f5780601f106106345761010080835404028352916020019161065f565b820191906000526020600020905b81548152906001019060200180831161064257829003601f168201915b5050505050905090565b6000806001600061067861081f565b73ffffffffffffffffffffffffffffffffffffffff1673ffffffffffffffffffffffffffffffffffffffff16815260200190815260200160002060008573ffffffffffffffffffffffffffffffffffffffff1673ffffffffffffffffffffffffffffffffffffffff16815260200190815260200160002054905082811015610735576040517f08c379a000000000000000000000000000000000000000000000000000000000815260040161072c906116b0565b60405180910390fd5b61074961074061081f565b85858403610827565b600191505092915050565b600061076861076161081f565b84846109f2565b6001905092915050565b6000600160008473ffffffffffffffffffffffffffffffffffffffff1673ffffffffffffffffffffffffffffffffffffffff16815260200190815260200160002060008373ffffffffffffffffffffffffffffffffffffffff1673ffffffffffffffffffffffffffffffffffffffff16815260200190815260200160002054905092915050565b600560009054906101000a900473ffffffffffffffffffffffffffffffffffffffff1681565b600033905090565b600073ffffffffffffffffffffffffffffffffffffffff168373ffffffffffffffffffffffffffffffffffffffff161415610897576040517f08c379a000000000000000000000000000000000000000000000000000000000815260040161088e90611690565b60405180910390fd5b600073ffffffffffffffffffffffffffffffffffffffff168273ffffffffffffffffffffffffffffffffffffffff161415610907576040517f08c379a00000000000000000000000000000000000000000000000000000000081526004016108fe906115f0565b60405180910390fd5b80600160008573ffffffffffffffffffffffffffffffffffffffff1673ffffffffffffffffffffffffffffffffffffffff16815260200190815260200160002060008473ffffffffffffffffffffffffffffffffffffffff1673ffffffffffffffffffffffffffffffffffffffff168152602001908152602001600020819055508173ffffffffffffffffffffffffffffffffffffffff168373ffffffffffffffffffffffffffffffffffffffff167f8c5be1e5ebec7d5bd14f71427d1e84f3dd0314c0f7b2291e5b200ac8c7c3b925836040516109e591906116f0565b60405180910390a3505050565b6109fd838383610d85565b610a0682611006565b610a0e61113b565b7ffda3a3e0e1479b43cb1c701f7576187f4c4ad80768d627387e00184302f7d88e838383604051610a419392919061153c565b60405180910390a1505050565b600073ffffffffffffffffffffffffffffffffffffffff168273ffffffffffffffffffffffffffffffffffffffff161415610abe576040517f08c379a0000000000000000000000000000000000000000000000000000000008152600401610ab5906116d0565b60405180910390fd5b610aca600083836111ce565b8060026000828254610adc9190611742565b92505081905550806000808473ffffffffffffffffffffffffffffffffffffffff1673ffffffffffffffffffffffffffffffffffffffff1681526020019081526020016000206000828254610b319190611742565b925050819055508173ffffffffffffffffffffffffffffffffffffffff16600073ffffffffffffffffffffffffffffffffffffffff167fddf252ad1be2c89b69c2b068fc378daa952ba7f163c4a11628f55a4df523b3ef83604051610b9691906116f0565b60405180910390a3610baa600083836111d3565b5050565b600073ffffffffffffffffffffffffffffffffffffffff168273ffffffffffffffffffffffffffffffffffffffff161415610c1e576040517f08c379a0000000000000000000000000000000000000000000000000000000008152600401610c1590611650565b60405180910390fd5b610c2a826000836111ce565b60008060008473ffffffffffffffffffffffffffffffffffffffff1673ffffffffffffffffffffffffffffffffffffffff16815260200190815260200160002054905081811015610cb0576040517f08c379a0000000000000000000000000000000000000000000000000000000008152600401610ca7906115d0565b60405180910390fd5b8181036000808573ffffffffffffffffffffffffffffffffffffffff1673ffffffffffffffffffffffffffffffffffffffff168152602001908152602001600020819055508160026000828254610d079190611823565b92505081905550600073ffffffffffffffffffffffffffffffffffffffff168373ffffffffffffffffffffffffffffffffffffffff167fddf252ad1be2c89b69c2b068fc378daa952ba7f163c4a11628f55a4df523b3ef84604051610d6c91906116f0565b60405180910390a3610d80836000846111d3565b505050565b600073ffffffffffffffffffffffffffffffffffffffff168373ffffffffffffffffffffffffffffffffffffffff161415610df5576040517f08c379a0000000000000000000000000000000000000000000000000000000008152600401610dec90611670565b60405180910390fd5b600073ffffffffffffffffffffffffffffffffffffffff168273ffffffffffffffffffffffffffffffffffffffff161415610e65576040517f08c379a0000000000000000000000000000000000000000000000000000000008152600401610e5c906115b0565b60405180910390fd5b610e708383836111ce565b60008060008573ffffffffffffffffffffffffffffffffffffffff1673ffffffffffffffffffffffffffffffffffffffff16815260200190815260200160002054905081811015610ef6576040517f08c379a0000000000000000000000000000000000000000000000000000000008152600401610eed90611610565b60405180910390fd5b8181036000808673ffffffffffffffffffffffffffffffffffffffff1673ffffffffffffffffffffffffffffffffffffffff16815260200190815260200160002081905550816000808573ffffffffffffffffffffffffffffffffffffffff1673ffffffffffffffffffffffffffffffffffffffff1681526020019081526020016000206000828254610f899190611742565b925050819055508273ffffffffffffffffffffffffffffffffffffffff168473ffffffffffffffffffffffffffffffffffffffff167fddf252ad1be2c89b69c2b068fc378daa952ba7f163c4a11628f55a4df523b3ef84604051610fed91906116f0565b60405180910390a36110008484846111d3565b50505050565b60005b6006805490508110156110c65760068181548110611050577f4e487b7100000000000000000000000000000000000000000000000000000000600052603260045260246000fd5b9060005260206000200160009054906101000a900473ffffffffffffffffffffffffffffffffffffffff1673ffffffffffffffffffffffffffffffffffffffff168273ffffffffffffffffffffffffffffffffffffffff1614156110b3576110c6565b80806110be90611911565b915050611009565b600680549050811415611137576006829080600181540180825580915050600190039060005260206000200160009091909190916101000a81548173ffffffffffffffffffffffffffffffffffffffff021916908373ffffffffffffffffffffffffffffffffffffffff1602179055505b5050565b60005b6006805490508110156111cb576111b860068281548110611188577f4e487b7100000000000000000000000000000000000000000000000000000000600052603260045260246000fd5b9060005260206000200160009054906101000a900473ffffffffffffffffffffffffffffffffffffffff166111d8565b80806111c390611911565b91505061113e565b50565b505050565b505050565b6000606460016111e78461058f565b6111f191906117c9565b6111fb9190611798565b90506112078282610a4e565b5050565b60008135905061121a81611ce8565b92915050565b60008135905061122f81611cff565b92915050565b60006020828403121561124757600080fd5b60006112558482850161120b565b91505092915050565b6000806040838503121561127157600080fd5b600061127f8582860161120b565b92505060206112908582860161120b565b9150509250929050565b6000806000606084860312156112af57600080fd5b60006112bd8682870161120b565b93505060206112ce8682870161120b565b92505060406112df86828701611220565b9150509250925092565b600080604083850312156112fc57600080fd5b600061130a8582860161120b565b925050602061131b85828601611220565b9150509250929050565b60006020828403121561133757600080fd5b600061134584828501611220565b91505092915050565b61135781611857565b82525050565b61136681611869565b82525050565b600061137782611726565b6113818185611731565b93506113918185602086016118ac565b61139a816119e7565b840191505092915050565b60006113b2602383611731565b91506113bd826119f8565b604082019050919050565b60006113d5602283611731565b91506113e082611a47565b604082019050919050565b60006113f8602283611731565b915061140382611a96565b604082019050919050565b600061141b602683611731565b915061142682611ae5565b604082019050919050565b600061143e602883611731565b915061144982611b34565b604082019050919050565b6000611461602183611731565b915061146c82611b83565b604082019050919050565b6000611484602583611731565b915061148f82611bd2565b604082019050919050565b60006114a7602483611731565b91506114b282611c21565b604082019050919050565b60006114ca602583611731565b91506114d582611c70565b604082019050919050565b60006114ed601f83611731565b91506114f882611cbf565b602082019050919050565b61150c81611895565b82525050565b61151b8161189f565b82525050565b6000602082019050611536600083018461134e565b92915050565b6000606082019050611551600083018661134e565b61155e602083018561134e565b61156b6040830184611503565b949350505050565b6000602082019050611588600083018461135d565b92915050565b600060208201905081810360008301526115a8818461136c565b905092915050565b600060208201905081810360008301526115c9816113a5565b9050919050565b600060208201905081810360008301526115e9816113c8565b9050919050565b60006020820190508181036000830152611609816113eb565b9050919050565b600060208201905081810360008301526116298161140e565b9050919050565b6000602082019050818103600083015261164981611431565b9050919050565b6000602082019050818103600083015261166981611454565b9050919050565b6000602082019050818103600083015261168981611477565b9050919050565b600060208201905081810360008301526116a98161149a565b9050919050565b600060208201905081810360008301526116c9816114bd565b9050919050565b600060208201905081810360008301526116e9816114e0565b9050919050565b60006020820190506117056000830184611503565b92915050565b60006020820190506117206000830184611512565b92915050565b600081519050919050565b600082825260208201905092915050565b600061174d82611895565b915061175883611895565b9250827fffffffffffffffffffffffffffffffffffffffffffffffffffffffffffffffff0382111561178d5761178c61195a565b5b828201905092915050565b60006117a382611895565b91506117ae83611895565b9250826117be576117bd611989565b5b828204905092915050565b60006117d482611895565b91506117df83611895565b9250817fffffffffffffffffffffffffffffffffffffffffffffffffffffffffffffffff04831182151516156118185761181761195a565b5b828202905092915050565b600061182e82611895565b915061183983611895565b92508282101561184c5761184b61195a565b5b828203905092915050565b600061186282611875565b9050919050565b60008115159050919050565b600073ffffffffffffffffffffffffffffffffffffffff82169050919050565b6000819050919050565b600060ff82169050919050565b60005b838110156118ca5780820151818401526020810190506118af565b838111156118d9576000848401525b50505050565b600060028204905060018216806118f757607f821691505b6020821081141561190b5761190a6119b8565b5b50919050565b600061191c82611895565b91507fffffffffffffffffffffffffffffffffffffffffffffffffffffffffffffffff82141561194f5761194e61195a565b5b600182019050919050565b7f4e487b7100000000000000000000000000000000000000000000000000000000600052601160045260246000fd5b7f4e487b7100000000000000000000000000000000000000000000000000000000600052601260045260246000fd5b7f4e487b7100000000000000000000000000000000000000000000000000000000600052602260045260246000fd5b6000601f19601f8301169050919050565b7f45524332303a207472616e7366657220746f20746865207a65726f206164647260008201527f6573730000000000000000000000000000000000000000000000000000000000602082015250565b7f45524332303a206275726e20616d6f756e7420657863656564732062616c616e60008201527f6365000000000000000000000000000000000000000000000000000000000000602082015250565b7f45524332303a20617070726f766520746f20746865207a65726f20616464726560008201527f7373000000000000000000000000000000000000000000000000000000000000602082015250565b7f45524332303a207472616e7366657220616d6f756e742065786365656473206260008201527f616c616e63650000000000000000000000000000000000000000000000000000602082015250565b7f45524332303a207472616e7366657220616d6f756e742065786365656473206160008201527f6c6c6f77616e6365000000000000000000000000000000000000000000000000602082015250565b7f45524332303a206275726e2066726f6d20746865207a65726f2061646472657360008201527f7300000000000000000000000000000000000000000000000000000000000000602082015250565b7f45524332303a207472616e736665722066726f6d20746865207a65726f20616460008201527f6472657373000000000000000000000000000000000000000000000000000000602082015250565b7f45524332303a20617070726f76652066726f6d20746865207a65726f2061646460008201527f7265737300000000000000000000000000000000000000000000000000000000602082015250565b7f45524332303a2064656372656173656420616c6c6f77616e63652062656c6f7760008201527f207a65726f000000000000000000000000000000000000000000000000000000602082015250565b7f45524332303a206d696e7420746f20746865207a65726f206164647265737300600082015250565b611cf181611857565b8114611cfc57600080fd5b50565b611d0881611895565b8114611d1357600080fd5b5056fea2646970667358221220b9b81a74aec21ccbcb1914b8032c162ff565e9cc00d77909913941846dd6066d64736f6c63430008040033",
  "linkReferences": {},
  "deployedLinkReferences": {}
}